:100000000C942A000C9449000C943C000C943C0085
:100010000C943C000C943C000C943C000C943C0070
:100020000C943C000C943C000C943C000C943C0060
:100030000C943C000C943C000C943C000C943C0050
:100040000C943C000C943C000C943C000C943C0040
:100050000C943C0011241FBECFE5D8E0DEBFCDBF1D
:1000600020E0A0E6B0E001C01D92A236B207E1F7A1
:100070000E9472000C9420040C940000C89903C0E4
:10008000109261000895C89B03C081E080936100D5
:1000900008951F920F920FB60F9211242F933F9342
:1000A0004F935F936F937F938F939F93AF93BF9380
:1000B000EF93FF9381E08093600081E690E00E94DF
:1000C0003E00FF91EF91BF91AF919F918F917F91F2
:1000D0006F915F914F913F912F910F900FBE0F90B5
:1000E0001F9018950E948E01FDCF83BF0895883020
:1000F0009105C1F038F48630910551F180F50197F2
:1001000069F00895893021E09207B9F0811524E063
:100110009207B9F08034910559F508C083B7816022
:1001200083BF089583B7826083BF089583B78160DA
:1001300083BF83B7826083BF089583B7846083BF22
:10014000089583B7816083BF83B7846083BF0895B8
:1001500083B7826083BF83B7846083BF089583B70A
:10016000816083BF83B7826083BF83B7846083BFAE
:10017000089513BE08954F925F926F927F928F926F
:100180009F92AF92BF92CF92DF92EF92FF92CF9366
:10019000DF9300D000D000D0CDB7DEB79E838D8333
:1001A00080E090E00E94BB0220E030E04AE754E4A7
:1001B0000E941A0269837A838B839C8320E030E05B
:1001C00040E853E40E94B3034B015C012D813E8162
:1001D000B90180E090E00E94BB026B017C019B01B1
:1001E000AC01C501B4010E94AE0318169CF4A7012E
:1001F0009601C501B4010E94910129813A814B8188
:100200005C810E941A022B013C0181E090E09E83F8
:100210008D8305C01E821D82412C512C3201A70105
:100220009601C501B4010E941502811107C021E0A9
:1002300030E03E832D83412C512C3201A7019601E1
:10024000C501B4010E94150288236CF5A501940133
:10025000C701B6010E941A020E94FE010E948C0290
:100260004B015C017E836D8329813A814B815C81E6
:10027000C701B6010E941A026B017C01B40180E043
:1002800090E00E94BB029B01AC01C701B6010E9435
:100290001A029B01AC0160E070E080E893E40E94E8
:1002A00091012B013C01C301B2010E948C0262BF8B
:1002B00020E030E008C008B600FEFDCF88B78160BE
:1002C00088BF2F5F3F4F8D819E812817390798F394
:1002D00026960FB6F894DEBF0FBECDBFDF91CF914B
:1002E000FF90EF90DF90CF90BF90AF909F908F9056
:1002F0007F906F905F904F90089580E090E00E9413
:10030000750080E094E00E94770060E074E084EF84
:1003100091E00E94BB000E94B90008950E947D01F7
:1003200008955058BB27AA270E94A9010C945C038A
:100330000E944E0338F00E94550320F039F49F3F8D
:1003400019F426F40C944B030EF4E095E7FB0C949F
:100350001C03E92F0E946D0358F3BA176207730755
:100360008407950720F079F4A6F50C94A7030EF402
:10037000E0950B2EBA2FA02D0B01B90190010C01B5
:10038000CA01A0011124FF27591B99F0593F50F4CD
:10039000503E68F11A16F040A22F232F342F442725
:1003A000585FF3CF469537952795A795F04053951D
:1003B000C9F77EF41F16BA0B620B730B840BBAF0ED
:1003C0009150A1F0FF0FBB1F661F771F881FC2F758
:1003D0000EC0BA0F621F731F841F48F4879577956C
:1003E0006795B795F7959E3F08F0B0CF9395880F26
:1003F00008F09927EE0F9795879508950E948F032F
:1004000090F09F3748F4911116F40C94A80360E023
:1004100070E080E89FE3089526F01B16611D711DB2
:10042000811D0C9422030C943D030E94F80208F4F1
:1004300081E008950E942E020C945C030E945503F3
:1004400058F00E944E0340F029F45F3F29F00C94CD
:100450001C0351110C94A8030C944B030E946D03D0
:1004600068F39923B1F3552391F3951B550BBB27E3
:10047000AA2762177307840738F09F5F5F4F220F28
:10048000331F441FAA1FA9F335D00E2E3AF0E0E81F
:1004900032D091505040E695001CCAF72BD0FE2F69
:1004A00029D0660F771F881FBB1F261737074807FD
:1004B000AB07B0E809F0BB0B802DBF01FF279358B5
:1004C0005F4F3AF09E3F510578F00C941C030C945A
:1004D000A8035F3FE4F3983ED4F38695779567953C
:1004E000B795F7959F5FC9F7880F911D96958795EA
:1004F00097F90895E1E0660F771F881FBB1F621709
:1005000073078407BA0720F0621B730B840BBA0BC6
:10051000EE1F88F7E09508950E94750388F09F57B5
:1005200098F0B92F9927B751B0F0E1F0660F771F17
:10053000881F991F1AF0BA95C9F714C0B13091F00D
:100540000E94A703B1E008950C94A703672F782FAA
:100550008827B85F39F0B93FCCF3869577956795D2
:10056000B395D9F73EF490958095709561957F4F3E
:100570008F4F9F4F0895E89409C097FB3EF49095E4
:100580008095709561957F4F8F4F9F4F9923A9F06C
:10059000F92F96E9BB279395F695879577956795FB
:1005A000B795F111F8CFFAF4BB0F11F460FF1BC03F
:1005B0006F5F7F4F8F4F9F4F16C0882311F096E9D2
:1005C00011C0772321F09EE8872F762F05C0662380
:1005D00071F096E8862F70E060E02AF09A95660F39
:1005E000771F881FDAF7880F9695879597F90895F2
:1005F000990F0008550FAA0BE0E8FEEF1616170634
:10060000E807F907C0F012161306E407F50798F09B
:10061000621B730B840B950B39F40A2661F0232BB4
:10062000242B252B21F408950A2609F4A140A69530
:100630008FEF811D811D089597F99F6780E870E015
:1006400060E00895882371F4772321F09850872B78
:10065000762F07C0662311F499270DC09051862B81
:1006600070E060E02AF09A95660F771F881FDAF72E
:10067000880F9695879597F908959F3F31F091508F
:1006800020F4879577956795B795880F911D969576
:10069000879597F908959FEF80EC089500240A94B8
:1006A0001616170618060906089500240A9412164D
:1006B0001306140605060895092E0394000C11F480
:1006C000882352F0BB0F40F4BF2B11F460FF04C02D
:1006D0006F5F7F4F8F4F9F4F089557FD9058440F86
:1006E000551F59F05F3F71F04795880F97FB991F91
:1006F00061F09F3F79F0879508951216130614064E
:10070000551FF2CF4695F1DF08C0161617061806DA
:10071000991FF1CF869571056105089408950E948F
:100720007503A0F0BEE7B91788F4BB279F3860F4C3
:100730001616B11D672F782F8827985FF7CF8695FB
:1007400077956795B11D93959639C8F30895E89408
:10075000BB2766277727CB0197F908950E94F802F7
:1007600008F48FEF08950E94C6030C945C030E9466
:100770004E0338F00E94550320F0952311F00C949D
:100780001C030C944B0311240C94A8030E946D03CA
:1007900070F3959FC1F3950F50E0551F629FF001D4
:1007A000729FBB27F00DB11D639FAA27F00DB11DED
:1007B000AA1F649F6627B00DA11D661F829F222776
:1007C000B00DA11D621F739FB00DA11D621F839FFD
:1007D000A00D611D221F749F3327A00D611D231FD3
:1007E000849F600D211D822F762F6A2F11249F5721
:1007F00050409AF0F1F088234AF0EE0FFF1FBB1F24
:10080000661F771F881F91505040A9F79E3F5105E2
:1008100080F00C941C030C94A8035F3FE4F3983E13
:10082000D4F3869577956795B795F795E7959F5F8C
:10083000C1F7FE2B880F911D9695879597F908951E
:04084000F894FFCF5A
:00000001FF
